:10000000B2C00000C3C00000C1C00000BFC00000FB
:10001000BDC0000010C30000E9C20000B7C000006E
:10002000B5C00000B3C00000B1C00000AFC0000008
:10003000ADC00000ABC00000A9C00000A7C0000018
:10004000A5C00000A3C00000A1C000009FC0000028
:100050009DC000009BC0000099C0000097C0000038
:1000600095C0000093C0000091C000008FC0000048
:100070008DC000008BC0000089C0000087C0000058
:1000800085C0000083C0000081C000007FC0000068
:100090007DC000007BC0000079C0000077C0000078
:1000A00075C0000073C0000071C000006FC0000088
:1000B0006DC000006BC0000069C0000067C0000098
:1000C00065C0000063C0000061C000005FC00000A8
:1000D0005DC000005BC0000059C0000057C00000B8
:1000E00055C0000007634236B79BD8A71A39685637
:1000F00018AEBAAB558C1D3CB7CC5763BD6DEDFD4A
:10010000753EF6177231BF000000803F0800000006
:10011000BE922449123EABAAAA2ABECDCCCC4C3EFC
:1001200000000080BEABAAAAAA3E00000000BF00EB
:100130000000803F0000000000084178D3BB4387E7
:10014000D1133D190E3CC3BD4282AD2B3E68EC82FB
:1001500076BED98FE1A93E4C80EFFFBE01C4FF7F80
:100160003F000000000011241FBECFEFD1E2DEBF30
:10017000CDBF00E00CBF22E0A0E0B2E001C01D92C4
:10018000AD32B207E1F7B7D40C946B0939CF81B126
:100190008F6081B982B1807F82B9EAE0F1E080812D
:1001A00088618083EBE0F1E080818861808387B1A2
:1001B000876F87B988B1807888B908956C98749AE8
:1001C00008956D98759A089510BA11BA10920701A2
:1001D000109208010895DBDFF1DFF3DFF5CF08951A
:1001E000EAE7F0E0108210927B0080E280937C00CE
:1001F00080E880BF86E880830895883018F098E012
:1002000090937B008770806280937C00EAE7F0E047
:10021000808180648083808184FFFDCF809179001C
:10022000EAE7F0E090819061908310927B0008955E
:10023000682F70E080E090E084D52FEE39EC43E940
:100240005FE370D69B01AC0160E070E080E89FE363
:10025000DFD42AE939EF4EE255E401D620E030E060
:1002600040E251E4FCD53CD5CB01613223E072077A
:1002700010F080E293E0089586E69EE00197F1F7A2
:1002800000004098419880E388B9429A8FEF97E444
:100290000197F1F700C00000429886E69EE00197C2
:1002A000F1F700004098419880E388B9429A8FEFB7
:1002B00097E40197F1F700C00000429886E69EE0BF
:1002C0000197F1F700004098419880E388B9429A7D
:1002D0008FEF97E40197F1F700C00000429886E69F
:1002E0009EE00197F1F700004098419880E288B9BC
:1002F000429A86E69EE00197F1F700004298089541
:1003000098B19F7098B998B1282F207F922B98B9F7
:1003100040984198429AEFEFF7E43197F1F700C027
:100320000000429898B19F7098B998B18295807FEB
:10033000892B88B940984198429A8FEF97E40197AA
:10034000F1F700C000004298089586E69EE001970C
:10035000F1F7000088E2D4DF81E0D2DF86E0D0DF71
:100360008EE0CEDF80E8CCCF089598B19F7098B929
:1003700098B1282F207F922B98B9409A4198429AA1
:10038000EFEFF7E43197F1F700C00000429898B121
:100390009F7098B998B18295807F892B88B9409ACF
:1003A0004198429A8FEF97E40197F1F700C000005F
:1003B0004298089580E8A4CF0895823069F018F437
:1003C000813031F00895833059F0843069F0089518
:1003D0008FE7860F95CF08958FEB860F91CF089505
:1003E00083E9860F8DCF089583ED860F89CF089519
:1003F0000F931F93CF93DF938A01E901882311F0B4
:10040000611102C0D7DF01C0D8DFC530D10509F0C6
:10041000CDC09801329522952F7023273F70232756
:10042000A7E4B3E049D796958795969587959695D5
:100430008795C09690930C0280930B0296DF9801EB
:10044000369527953695279536952795A5ECB0E2F4
:1004500033D7AC01529542954F7045275F704527C1
:1004600050931602409315029A01ADECBCEC24D7D0
:100470009695879596958795969587959C01220FD9
:10048000331F880F991F880F991F880F991F820F9C
:10049000931F481B590BCA01C09690932902809361
:1004A000280263DF04C0C330D10509F084C098017D
:1004B0003695279536952795ABE7B4E1FDD6AC0187
:1004C0005695479550931602409315029A01ADEC4C
:1004D000BCECF2D6969587959695879596958795D7
:1004E0009C01220F331F880F991F880F991F880FB7
:1004F000991F820F931F481B590BCA01C0969093F6
:1005000023028093220231DF9801ADECBCECD4D6FB
:10051000AC015695479556954795569547955093F6
:100520001602409315029A01C7D69695879596951F
:100530008795969587959C01220F331F880F991FE9
:10054000880F991F880F991F820F931F481B590B03
:10055000CA01C09690931F0280931E0206DF03C05B
:10056000C130D105F1F49801ADECBCECA5D696955F
:10057000879596958795969587959C01220F331FB1
:10058000880F991F880F991F880F991F820F931F3B
:10059000081B190BC801C09690932702809326026E
:1005A000E4DE269764F085E4E0DE09C0C430D105BE
:1005B00009F079CF44CFC230D10591F6A5CFDF91B4
:1005C000CF911F910F910895F894EAE6F0E08081B1
:1005D00082608083EC9A78940895F894EAE6F0E0DB
:1005E000808188608083ED9A789408951F920F929D
:1005F0000FB60F9211248F939F93AF93BF93809167
:10060000000290910102A0910202B09103020196B2
:10061000A11DB11D8093000290930102A0930202DC
:10062000B0930302BF91AF919F918F910F900FBE36
:100630000F901F9018951F920F920FB60F921124D2
:100640008F939F93AF93BF93809104029091050283
:10065000A0910602B09107020196A11DB11D8093E1
:10066000040290930502A0930602B0930702BF9183
:10067000AF919F918F910F900FBE0F901F90189583
:1006800092B1907F8F70982B92B9089586E0F8CF41
:10069000089585E0F5CF08958AE0F2CF089580E0CF
:1006A000EFCF0895CF92DF92EF92FF920F931F93B7
:1006B000BC0180E090E045D328E431EE42E850E40C
:1006C000A7D213D3CB01A0E0B0E0109200021092A9
:1006D0000102109202021092030210920402109280
:1006E0000502109206021092070251E0E0E0C0906D
:1006F0000002D0900102E0900202F090030200910B
:100700000402109105022091060230910702452F44
:10071000081719072A073B0708F44E2F411109C093
:10072000252FC816D906EA06FB0608F42E2F222329
:10073000F1F2B5DF1F910F91FF90EF90DF90CF9016
:1007400008950F931F93BC0180E090E0FAD225EE4C
:1007500030ED4AEA50E45CD2C8D210920002109206
:100760000102109202021092030200910002109105
:100770000102209102023091030260177107820783
:10078000930798F78CDF1F910F910895CF93DF9314
:10079000EC017CDFCE01D5DFDF91CF910895CF93BF
:1007A000DF93EC0176DFCE017DDFDF91CF910895FD
:1007B000CF93DF93EC0170DFCE0174DFDF91CF9137
:1007C00008951092C5008FE58093C40088E180935E
:1007D000C10086E08093C2000895E0ECF0E09081D3
:1007E00095FFFDCF8093C6000895E0ECF0E0808196
:1007F0008823ECF78091C6000895F894ECDCF0DCD7
:10080000E3DEEBDE78940895F0DF80930D022FEFA6
:100810008FEF9CE2215080409040E1F700C0000043
:1008200040910D0250E023E030E061E081E0E0DD46
:1008300080E3D3DFDADF809319022FEF8FEF9CE2A2
:10084000215080409040E1F700C000004091190223
:1008500050E023E030E065E081E0CADD81E3BDDF08
:10086000C4DF809324022FEF8FEF9CE22150804061
:100870009040E1F700C000004091240250E023E0E6
:1008800030E06AE081E0B4DD80E3A7DFAEDF809393
:100890002C022FEF8FEF9CE2215080409040E1F737
:1008A00000C0000040912C0250E023E030E06EE0F8
:1008B00081E09EDD81E391CF089590910D028091BA
:1008C0002402981367C09091190280912C02981706
:1008D00078F58AE590E063DF2FEF8FEF9CE22150FF
:1008E00080409040E1F700C0000088EC90E04EDFCF
:1008F0002FEF8FEF9CE2215080409040E1F700C045
:1009000000008AE590E054DF2FEF8FEF9CE221504A
:1009100080409040E1F700C00000C1DE2FEF8FEF74
:100920009CE2215080409040E1F700C0000087C069
:10093000891708F084C08AE590E03ADF2FEF8FEF47
:100940009CE2215080409040E1F700C0000088EC1C
:1009500090E01CDF2FEF8FEF9CE221508040904011
:10096000E1F700C000008AE590E019DF2FEF8FEF7C
:100970009CE2215080409040E1F700C000008FDEF3
:100980002FEF8FEF9CE2215080409040E1F700C0B4
:10099000000055C09817E8F43091190220912C02FC
:1009A000321317C088EC90E0F1DE2FEF8FEF9CE25E
:1009B000215080409040E1F700C0000070DE2FEF32
:1009C0008FEF9CE2215080409040E1F700C0000092
:1009D00036C08917A0F59091190280912C029813C6
:1009E0002EC084EB90E0DBDE2FEF8FEF9CE22150F6
:1009F00080409040E1F700C0000088EC90E0C6DE47
:100A00002FEF8FEF9CE2215080409040E1F700C033
:100A1000000084EB90E0CCDE2FEF8FEF9CE22150C2
:100A200080409040E1F700C0000039DE2FEF8FEFEB
:100A30009CE2215080409040E1F700C0000080918E
:100A4000C00088230CF056C08091240280930D02D0
:100A50002FEF8FEF9CE2215080409040E1F700C0E3
:100A6000000040910D0250E023E030E061E082E0C0
:100A7000BFDC80912C02809319022FEF8FEF9CE254
:100A8000215080409040E1F700C0000040911902E1
:100A900050E023E030E065E082E0AADCA6DE80934F
:100AA00024022FEF8FEF9CE2215080409040E1F72D
:100AB00000C000004091240250E023E030E06AE0F2
:100AC00082E096DC80E389DE90DE80932C022FEFBB
:100AD0008FEF9CE2215080409040E1F700C0000081
:100AE00040912C0250E023E030E06EE082E080DCB8
:100AF00081E373CE089565DE80DEBEDB26DC8BE00D
:100B00007CDB8093250294DB90932B0280932A0256
:100B100023E030E0AC0167E081E06ADC66DE8093D0
:100B200021022FEF8FEF9CE2215080409040E1F7AF
:100B300000C000004091210250E023E030E061E07D
:100B400082E056DC80E349DE50DE80930A022FEF1C
:100B50008FEF9CE2215080409040E1F700C0000000
:100B600040910A0250E023E030E065E082E040DCA2
:100B700081E333DE3ADE80930E022FEF8FEF9CE2AB
:100B8000215080409040E1F700C0000040910E02EB
:100B900050E023E030E06AE082E02ADC80E31DDE02
:100BA00024DE809310022FEF8FEF9CE221508040D3
:100BB0009040E1F700C000004091100250E023E0B7
:100BC00030E06EE082E014DCC0ECD0E08881882365
:100BD000ECF71ADE01C071DE9091100280912C02B8
:100BE0009813F9CF90910E02809124029813F3CFBD
:100BF0000BDE01C062DE90910A0280912C029813F4
:100C0000F9CF90912102809124029813F3CFDECF87
:100C10000CD0EBC0E3D040F0DAD030F021F45F3FED
:100C200019F0CCC0511115C1CFC0F0D098F3992361
:100C3000C9F35523B1F3951B550BBB27AA276217A0
:100C40007307840738F09F5F5F4F220F331F441FE5
:100C5000AA1FA9F333D00E2E3AF0E0E830D091501D
:100C60005040E695001CCAF729D0FE2F27D0660F0A
:100C7000771F881FBB1F261737074807AB07B0E849
:100C800009F0BB0B802DBF01FF2793585F4F2AF05F
:100C90009E3F510568F092C0DCC05F3FECF3983E88
:100CA000DCF3869577956795B795F7959F5FC9F7BC
:100CB000880F911D9695879597F90895E1E0660F45
:100CC000771F881FBB1F621773078407BA0720F0BE
:100CD000621B730B840BBA0BEE1F88F7E095089527
:100CE00004D06894B111B5C0089598D088F09F578A
:100CF00090F0B92F9927B751A0F0D1F0660F771F68
:100D0000881F991F1AF0BA95C9F712C0B13081F047
:100D10009FD0B1E008959CC0672F782F8827B85FD7
:100D200039F0B93FCCF3869577956795B395D9F7A8
:100D30003EF490958095709561957F4F8F4F9F4FB2
:100D40000895E89409C097FB3EF4909580957095BE
:100D500061957F4F8F4F9F4F9923A9F0F92F96E907
:100D6000BB279395F695879577956795B795F1117C
:100D7000F8CFFAF4BB0F11F460FF1BC06F5F7F4F19
:100D80008F4F9F4F16C0882311F096E911C077232B
:100D900021F09EE8872F762F05C0662371F096E834
:100DA000862F70E060E02AF09A95660F771F881F03
:100DB000DAF7880F9695879597F9089597F99F67C1
:100DC00080E870E060E008959FEF80EC08950024D3
:100DD0000A941616170618060906089500240A94A0
:100DE00012161306140605060895092E0394000C26
:100DF00011F4882352F0BB0F40F4BF2B11F460FFB5
:100E000004C06F5F7F4F8F4F9F4F089557FD9058DD
:100E1000440F551F59F05F3F71F04795880F97FBBE
:100E2000991F61F09F3F79F0879508951216130678
:100E30001406551FF2CF4695F1DF08C016161706A7
:100E40001806991FF1CF86957105610508940895DC
:100E5000E894BB2766277727CB0197F908950BD035
:100E6000C4CFB5DF28F0BADF18F0952309F0A6CF7C
:100E7000ABCF1124EECFCADFA0F3959FD1F3950F2E
:100E800050E0551F629FF001729FBB27F00DB11D0E
:100E9000639FAA27F00DB11DAA1F649F6627B00D9E
:100EA000A11D661F829F2227B00DA11D621F739F87
:100EB000B00DA11D621F839FA00D611D221F749F95
:100EC0003327A00D611D231F849F600D211D822FDC
:100ED000762F6A2F11249F5750408AF0E1F0882323
:100EE0004AF0EE0FFF1FBB1F661F771F881F915030
:100EF0005040A9F79E3F510570F060CFAACF5F3FE9
:100F0000ECF3983EDCF3869577956795B795F79562
:100F1000E7959F5FC1F7FE2B880F911D96958795EA
:100F200097F90895FA01EE0FFF1F3096210531055C
:100F300099F16115710561F48038BFE39B0749F1B0
:100F400068949038810561F08038BFEF9B0741F0CD
:100F5000992342F5FF3FE1053105210511F1E894A0
:100F60000894E795D901AA2329F4AB2FBE2FF85F87
:100F7000D0F310C0FF5F70F4A695E0F7F73950F09A
:100F800019F0FF3A38F49F779F930CD00F9007FC2D
:100F9000905808953EF018CF60E070E080E89FE33D
:100FA00008954FE79F775F934F933F932F939ED082
:100FB0002F913F914F915F9152DF05C019F40EF0D0
:100FC000FDCE46CF01CF2ADFC8F39638C0F707F829
:100FD0000F92E8942BE33AEA48EB5FE74EDF0F927B
:100FE0000F920F924DB75EB70F92C0D0E4EEF0E0D3
:100FF00016D04F915F91EF91FF91E595EE1FFF1F86
:1010000049F0FE57E0684427EE0F441FFA95E1F7D8
:101010004195550B32D00F9007FE26C00895DF93FF
:10102000CF931F930F93FF92EF92DF927B018C017E
:10103000689405C0DA2EEF011EDFFE01E894A59149
:101040002591359145915591AEF3EF01D4D0FE0134
:101050009701A801DA9479F7DF90EF90FF900F9154
:101060001F91CF91DF9108959B01AC0160E070E08A
:1010700080E89FE3CDCDA2CE11C1D0DEE8F3992365
:10108000D9F3940F511DBBF39150504094F059F097
:10109000882332F0660F771F881F91505040C1F7A8
:1010A0009E3F510544F7880F911D9695879597F9B6
:1010B00008955F3FACF0983E9CF0BB2786957795EE
:1010C0006795B79508F4B1609395C1F7BB0F58F7D2
:1010D00011F460FFE8CF6F5F7F4F8F4F9F4FE3CFDB
:1010E000B8CE0EF0DBC070CE689468CE97DEC8F341
:1010F0009923D1F3C6F3DF93CF931F930F93FF92FE
:10110000C92FDD2788232AF02197660F771F881FB4
:10111000DAF720E030E040E85FEB9FE3883920F029
:10112000803E30F021968F7755D0ECE0F1E003C09F
:1011300051D0E9E3F1E073DF8B01BE01EC01FB2E3E
:101140006F5771097595771F880B990BFCDD28E1A6
:1011500032E741E35FE38FDEAF2D9801AE01FF90F0
:101160000F911F91CF91DF9146D03FCEFA01DC0164
:10117000AA0FBB1F9B01AC01BF5728F422273327BE
:10118000442750781FC0B75188F4AB2F00244695F0
:1011900037952795011CA395D2F3002069F0220F03
:1011A000331F441FB395DAF30DD013C061307105BE
:1011B000A0E88A07B94630F49B01AC01662777277F
:1011C00088279078309621F020833183428353839F
:1011D00008955058BB27AA270ED007CEF8DD30F06F
:1011E000FDDD20F031F49F3F11F41EF4EDCD0EF43F
:1011F000E095E7FBE3CDE92F09DE80F3BA1762073C
:1012000073078407950718F071F49EF521CE0EF44C
:10121000E0950B2EBA2FA02D0B01B90190010C0106
:10122000CA01A0011124FF27591B99F0593F50F41E
:10123000503E68F11A16F040A22F232F342F442776
:10124000585FF3CF469537952795A795F04053956E
:10125000C9F77EF41F16BA0B620B730B840BBAF03E
:101260009150A1F0FF0FBB1F661F771F881FC2F7A9
:101270000EC0BA0F621F731F841F48F487957795BD
:101280006795B795F7959E3F08F0B3CF9395880F74
:1012900008F09927EE0F9795879508959F3F31F0B5
:1012A000915020F4879577956795B795880F911D94
:1012B0009695879597F90895A29FB001B39FC001B5
:1012C000A39F700D811D1124911DB29F700D811D72
:0A12D0001124911D0895F894FFCF3A
:00000001FF
